:020000040800F2
:1000000068060020450200084D0200084F02000863
:1000100051020008530200085502000800000000C9
:10002000000000000000000000000000570200086F
:1000300059020008000000005B02000801030008EC
:100040005F0200085F0200085F0200085F0200080C
:100050005F0200085F0200085F0200085F020008FC
:100060005F0200085F0200085F0200085F020008EC
:100070005F0200085F0200085F0200085F020008DC
:100080005F0200085F0200085F0200080000000035
:100090000000000000000000000000005F020008F7
:1000A0005F0200085F0200085F0200085F020008AC
:1000B0005F0200085F0200085F0200085F0200089C
:1000C0005F0200085F0200085F0200085F0200088C
:1000D0005F0200085F0200085F02000800000000E5
:1000E0005F0200085F0200085F02000800000000D5
:1000F0000000000000000000000000005F02000897
:10010000000000005F0200085F0200085F020008B4
:1001100000000000000000000000000000000000DF
:100120005F0200085F0200085F0200085F0200082B
:100130005F02000800000000000000000000000056
:100140000000000000000000000000005F02000846
:100150005F0200085F0200085F0200085F020008FB
:100160005F0200085F0200080000000000000000BD
:10017000000000000000000000000000000000007F
:10018000000000005F020008000000000000000006
:100190005F02000800F002F800F044F814A696E8A8
:1001A000000CB244B344DA4501D100F03BF8BAE8A0
:1001B0000F000FA696E83000A5EB040504EB060738
:1001C000AAEB0704A7F101074FEA15154FEA34140B
:1001D000A4F10104AC4201D300F024F813F0010FA4
:1001E00018BFFB1A43F0010300F001F8DBE71847E2
:1001F000A0020000B00200007047000000230024AD
:1002000000250026103A28BF78C1FBD8520728BF26
:1002100030C148BF0B6070471FB500F02CF91FBDFF
:1002200010B510BD00F031F81146FFF7F5FF00F0F2
:10023000F5F800F04FF803B4FFF7F2FF03BC00F04D
:1002400057F800000948804709480047FEE7FEE7E5
:10025000FEE7FEE7FEE7FEE7FEE7FEE7FEE7FEE776
:1002600004480549054A064B704700001103000881
:100270009501000868000020680600206802002040
:1002800068020020704770477047754600F02CF8F0
:10029000AE4605006946534620F00700854618B073
:1002A00020B5FFF7DDFFBDE820404FF000064FF01E
:1002B00000074FF000084FF0000BAC46ACE8C00957
:1002C000ACE8C009ACE8C009ACE8C00921F00701FE
:1002D0008D46704710B50446AFF300802046BDE858
:1002E0001040FFF7A8BF0000004870470000002042
:1002F00001491820ABBEFEE726000200704700004F
:1003000040F26401C2F200010868013008607047E1
:100310004EF68851CEF20001086840F47000086083
:100320007047000043F63001C4F20201086840F053
:10033000010008600021C4F20201086820F4406056
:100340000860086840F480600860704743F6000168
:10035000C4F20201086840F480300860FFE743F609
:100360000000C4F2020000688003002801D4FFE707
:10037000F5E743F60401C4F2020142F60820C0F298
:100380004000086043F60001C4F20201086840F032
:1003900080700860FFE743F60000C4F202000068C6
:1003A0008001002801D4FFE7F5E743F60041C4F2DD
:1003B0000201086840F00200086043F60801C4F238
:1003C0000201086820F003000860086840F002009D
:1003D0000860FFE743F60800C4F20200006800F07E
:1003E0000C00082801D0FFE7F4E770474EF2100137
:1003F000CEF20001002008604EF21403CEF200039A
:1004000044F61F02C0F201021A604EF21802CEF248
:1004100000021060072008607047000080B582B0BD
:1004200000200190FFF792FFFFF7E0FFFFF77AFF50
:10043000FFE740F26400C2F20000006840F2600191
:10044000C2F200010968401AB0F5FA7F12D3FFE743
:100450001421C4F20201086880F02000086040F214
:100460006400C2F20000006840F26001C2F20001C4
:100470000860FFE7DDE7F1EE100A4FF6FF71C0F20A
:10048000C03120EA010040F04070E1EE100A7047F0
:10049000A00400080000002068060000FC0100081D
:0400000508000245A8
:00000001FF
